:020000040800F2
:1000000000000120C9200008890600088B060008AE
:100010008D0600088F060008910600080000000009
:10002000000000000000000000000000930600082F
:1000300095060008000000009706000899060008D1
:1000400019210008192100081921000819210008A8
:100050001921000819210008192100081921000898
:100060001921000819210008192100081921000888
:100070001921000819210008192100081921000878
:100080001921000819210008192100081921000868
:100090001921000819210008192100081921000858
:1000A0001921000819210008192100081921000848
:1000B00019210008000000000000000019210008BC
:1000C00019210008000000000000000019210008AC
:1000D000000000001921000819210008000000009C
:1000E000192100081921000800000000000000008C
:1000F0000000000000000000000000000000000000
:1001000000000000000000000000000019210008AD
:10011000000000000000000019210008192100085B
:1001200019210008192100081921000819210008C7
:10013000192100080000000000000000000000007D
:1001400019210008192100081921000819210008A7
:100150001921000819210008192100081921000897
:1001600019210008192100081921000800000000C9
:1001700019210008192100080000000000000000FB
:1001800019210008192100081921000800000000A9
:1001900010B5054C237833B9044B13B10448AFF3C1
:1001A00000800123237010BD080000200000000023
:1001B0007421000808B5034B1BB103490348AFF392
:1001C000008008BD000000000C0000207421000821
:1001D00053B94AB9002908BF00281CBF4FF0FF31AE
:1001E0004FF0FF3000F072B9ADF1080C6DE904CEAC
:1001F00000F006F8DDF804E0DDE9022304B0704702
:100200002DE9F047089E04468846002B4BD18A42D0
:10021000154667D9B2FA82F24AB1C2F1200701FA53
:1002200002F320FA07F7954047EA030894404FEAA3
:10023000154E230CB8FBFEF71FFA85FC0EFB178842
:1002400043EA084307FB0CF1994209D9EB1807F17F
:10025000FF3080F01B81994240F21881023F2B440D
:100260005B1AA4B2B3FBFEF00EFB103344EA034466
:1002700000FB0CFCA44509D92C1900F1FF3380F0D8
:100280000781A44540F2048102382C4440EA07402B
:10029000A4EB0C0400271EB1D4400023C6E90043A0
:1002A0003946BDE8F0878B4209D9002E00F0EB807B
:1002B0000027C6E9000138463946BDE8F087B3FAA1
:1002C00083F7002F47D18B4202D3824200F2FA809B
:1002D000841A61EB030301209846002EE0D0C6E9A2
:1002E0000048DDE702B9FFDEB2FA82F2002A40F0F0
:1002F0008F80491B4FEA154E1FFA85F80127B1FB85
:10030000FEFC230C0EFB1C1143EA014308FB0CF11D
:10031000994207D9EB180CF1FF3002D2994200F252
:10032000CD808446591AA3B2B1FBFEF00EFB101427
:1003300043EA044408FB00F8A04507D92C1900F152
:10034000FF3302D2A04500F2B6801846A4EB0804A1
:1003500040EA0C409FE7C7F1200CBB4022FA0CFE9C
:100360004EEA030E01FA07F420FA0CF521FA0CF319
:100370004FEA1E482543B3FBF8F92C0C08FB193350
:100380001FFA8EFA44EA034309FB0AF49C4202FA7C
:1003900007F200FA07F10BD91EEB030309F1FF3056
:1003A00080F087809C4240F28480A9F10209734466
:1003B0001B1BADB2B3FBF8F008FB103345EA034456
:1003C00000FB0AFAA24508D91EEB040400F1FF3332
:1003D0006BD2A24569D90238744440EA0940A0FBB7
:1003E0000289A4EB0A044C45C2464B4654D351D073
:1003F000002E69D0B1EB0A0564EB030404FA0CFC8F
:10040000FD40FC404CEA0505C6E90054002747E7DB
:10041000C2F1200320FA03F7954001FA02F021FA15
:1004200003F34FEA154E3843010CB3FBFEF71FFAF6
:1004300085F80EFB173341EA034107FB08F38B42B3
:1004400004FA02F407D9691807F1FF3C2FD28B4256
:100450002DD9023F2944CB1A81B2B3FBFEF00EFB2B
:10046000103341EA034100FB08F38B4207D96918B6
:1004700000F1FF3C17D28B4215D902382944C91A22
:1004800040EA07473BE73746304609E70746E7E6D5
:100490001846FBE64145ABD2B8EB020A69EB0E0207
:1004A00001381346A4E76046E9E7184695E7674632
:1004B000D1E781467CE702382C4447E7ACF1020CD7
:1004C0002B442FE7384608E73746E9E6704700BF78
:1004D00070B588B00024039404940594069407949E
:1004E0001A4BDA6C42F00102DA64DA6C02F00102B3
:1004F0000192019ADA6C42F00202DA64DB6C03F0DA
:1005000002030293029B124E22460121304601F063
:1005100005FD22464FF480714FF0904001F0FEFC43
:100520000125039504950594069403A9304601F02E
:1005300035FC4FF48073039304950594069403A946
:100540004FF0904001F02AFC08B070BD001002404E
:100550000004004808B50C480C4B036040F61463D7
:100560004360002383600222C26001220261436172
:100570008361C361036243628362C36248F23003F2
:10058000036300F05FF908BDE8000020005400405C
:1005900008B50948094B0360094B43604FF080538D
:1005A00083600023C36003610C22426183610362A4
:1005B000436200F043FC08BD700000200080004052
:1005C0002433030038B50D4C0D4B236040F6146303
:1005D00063600025A5600123E36025616561A56175
:1005E000E5612562204600F095FC2946204600F092
:1005F000EFFC2946204600F019FD38BD24000020FC
:10060000005C004010B5ACB0402200211CA801F0F5
:10061000A9FD002416941794189419941A9454223E
:10062000214601A801F09EFD10231B930123219375
:10063000602323931BA800F0D9FD0F231693179472
:10064000189419941A94214616A801F0A9F84FF4A9
:10065000B07301930B940C940D9401A801F02AFA45
:100660004FF4007001F068FC2CB010BD08B500F02C
:1006700033FCFFF7C7FFFFF72BFFFFF76BFFFFF719
:1006800087FFFFF79FFFFEE77047FEE7FEE7FEE705
:10069000FEE770477047704708B500F02DFC08BDB5
:1006A00082B00A4B1A6E42F001021A661A6E02F00C
:1006B00001020092009A9A6D42F080529A659B6DF9
:1006C00003F080530193019B02B070470010024079
:1006D00010B588B000230393049305930693079302
:1006E0000268144B9A4201D008B010BD124CE36C62
:1006F00043F00103E364E36C03F001030193019B06
:100700004FF4C0630393122304930123059303233F
:1007100006930423079303A94FF0904001F03EFB9A
:10072000A36D43F40013A365A36D03F400130293B8
:10073000029BD9E700540040001002402DE9F0412F
:1007400088B00023039304930593069307930268EC
:100750001F4B9A4202D008B0BDE8F0811D4CE36CFB
:1007600043F00103E364E36C03F001030093009B97
:10077000E36C43F00203E364E36C03F002030193D0
:10078000019B802303934FF01208CDF810800127BE
:100790000597032606960425079503A94FF0904078
:1007A00001F0FCFA10230393CDF81080059706960C
:1007B000079503A9084801F0F1FAA36D43F400037B
:1007C000A365A36D03F400030293029BC3E700BF7C
:1007D000005C0040001002400004004800B589B0F1
:1007E0000023039304930593069307930268144B25
:1007F0009A4202D009B05DF804FB03F5C833DA6D04
:1008000042F00102DA65DA6D02F001020192019A0A
:10081000DA6C42F00102DA64DB6C03F0010302934C
:10082000029B0C23039302230493032306930823C0
:10083000079303A94FF0904001F0B0FADAE700BF48
:1008400000800040002871D010B50446836C002B56
:1008500052D00223A3642268136823F001031360BB
:100860006368226823F0706313612268536923F47C
:10087000004353612268536923F0004353612368A6
:10088000226B5A612268936823F400439360E36803
:1008900033B12269012A34D0226843F404439360BF
:1008A0002369022B32D02268536843F0007343F46B
:1008B000004353606369A2691343E169226843EA14
:1008C0000123D360236A626A1343A26A1343E26A74
:1008D0001343A16822680B431360A36AB3F5000FAA
:1008E00019D02268136843F0010313600020E0640C
:1008F00001232364A36410BD80F84430FFF7E8FEB1
:10090000A7E7226843F400439360C9E723684FF4E4
:1009100000625A60C7E7E36A13B1B3F5001FE0D184
:100920002268136843F480331360DAE701207047CC
:100930002DE9F0480446016883680269134342695F
:100940001343C26913430868A14A024013430B6072
:100950002268536823F44053E1680B435360A16954
:1009600022689C4B9A4201D0236A1943936823F46E
:1009700030630B4393602368974A93421CD0974A95
:1009800093422DD0934A934243D01025914A9342EB
:100990005ED0E369B3F5004F00F0D580082D00F27A
:1009A0006F81DFE815F02F0145014F016D015A01FC
:1009B0006D016D016D01640102F55842D2F8882085
:1009C00002F00302032A09D8DFE802F002043C0621
:1009D0000125DBE70425D9E70825D7E71025D5E76A
:1009E00002F5E632D2F8882002F00C020C2A0ED86A
:1009F000DFE802F0070D0D0D090D0D0D2A0D0D0D8F
:100A00000B000025C2E70425C0E70825BEE7102536
:100A1000BCE702F5C832D2F8882002F44062B2F591
:100A2000806F0BD007D9B2F5006F0FD0B2F5406FD1
:100A300006D10825AAE71AB90025A7E70425A5E7E6
:100A40001025A3E70225A1E702259FE702259DE7E0
:100A5000082D00F21881DFE815F00C0016011400D3
:100A60001601110016011601160109004FF400408D
:100A700008E000F045FF28B90020D4E000F04AFB70
:100A8000F9E75748626802EB4203834200F2FD80B7
:100A9000B0EB023F00F2FB80082D51D8DFE805F0F3
:100AA0000550205030505050430000F029FF0025E1
:100AB000070E0602626850082B4616EB000B47F142
:100AC000000C58466146FFF783FB03462846A3F512
:100AD0004071444A914200F2DC802268D360A2E077
:100AE000560800252B46DFF800B14FF0000C1BEB39
:100AF00006004CF10001FFF76BFB03462846E6E7D2
:100B000000F008FB0025070E0602626850082B461D
:100B100016EB000B47F1000C58466146FFF758FBF7
:100B200003462846D3E75008002700252B4610F53A
:100B3000000047F10001FFF74BFB03462846C6E7DC
:100B400001200023C3E7082D59D8DFE805F0051F71
:100B50002A58355858584F0000F0D2FE62685308A2
:100B600003EB4003B3FBF2F39BB20020A3F11001AF
:100B70004FF6EF72914200F28E809AB222F00F028D
:100B8000C3F3420313432268D3604CE000F0CAFE73
:100B90006268530803EB4003B3FBF2F39BB20020FF
:100BA000E4E76268530803F1F47303F59043B3FB81
:100BB000F2F39BB20020D9E700F0ACFA6268530868
:100BC00003EB4003B3FBF2F39BB20020CEE700BF80
:100BD000F369FFEF0080004000380140004400400E
:100BE0000024F400FFFC0F00000024F462685308A6
:100BF00003F58033B3FBF2F39BB20020B6E701208C
:100C00000023B3E700F07CFE636800EB5302B2FB05
:100C1000F3F292B20020A2F110014FF6EF73994265
:100C20003BD82368DA60002222666266BDE8F0885D
:100C300000F078FE636800EB5302B2FBF3F292B26D
:100C40000020E8E763685A0802F5740202F51052C2
:100C5000B2FBF3F292B20020DDE700F05BFA6368CA
:100C600000EB5302B2FBF3F292B20020D3E76368C9
:100C70005A0802F50042B2FBF3F292B20020CAE732
:100C800001200022C7E70120CDE70120CBE70120AA
:100C9000C9E70120C7E70120C5E70120C3E700BF7E
:100CA000436A13F0010F06D00268536823F400333F
:100CB000816A0B435360436A13F0020F06D0026847
:100CC000536823F48033C16A0B435360436A13F0C3
:100CD000040F06D00268536823F48023016B0B4392
:100CE0005360436A13F0080F06D00268536823F478
:100CF0000043416B0B435360436A13F0100F06D05F
:100D00000268936823F48053816B0B439360436ABA
:100D100013F0200F06D00268936823F40053C16BD0
:100D20000B439360436A13F0400F0AD00268536884
:100D300023F48013016C0B435360036CB3F5801FE5
:100D40000BD0436A13F0800F06D00268536823F477
:100D50000023816C0B43536070470268536823F48F
:100D6000C003416C0B435360EBE72DE9F0410546AE
:100D70000F4616469846069C2B68DB6937EA030344
:100D80000CBF01230023B3421DD1B4F1FF3FF3D0C8
:100D90002CB100F0B9F8A0EB0800A042ECD92A6809
:100DA000136823F4D07313602A68936823F0010357
:100DB0009360202385F8713085F87230002385F820
:100DC0007030032000E00020BDE8F08130B583B032
:100DD00004460023436700F097F8054623681B6824
:100DE00013F0080F0ED123681B6813F0040F17D1FE
:100DF000202384F8713084F87230002084F8700069
:100E000003B030BD6FF07E430093034600224FF4E1
:100E100000112046FFF7A9FF0028E4D00320EFE7E8
:100E20006FF07E4300932B4600224FF48001204652
:100E3000FFF79BFF0028DBD00320E1E778B310B574
:100E4000044690F871300BB3242384F87130226883
:100E5000136823F0010313602046FFF769FD0128A2
:100E600013D0636ABBB92268536823F4904353607C
:100E70002268936823F02A0393602268136843F082
:100E8000010313602046FFF7A1FF10BD80F870300A
:100E9000FFF7A4FCD8E72046FFF702FFE3E70120B5
:100EA0007047000010B50446094B1868094BA3FBB6
:100EB0000030800901F0CEF808B1012010BD0022F9
:100EC00021464FF0FF3001F091F80020F6E700BF17
:100ED00000000020D34D621010B5032001F074F81B
:100EE0000020FFF7DFFF10B10124204610BD0446AB
:100EF000FFF7D6FBF9E70000024A136801331360DD
:100F0000704700BF38010020014B1868704700BFD0
:100F100038010020002859D010B5044690F841301F
:100F2000002B43D0242384F841302268136823F037
:100F3000010313606368226823F070631361226801
:100F4000936823F400439360E368012B33D0A368D4
:100F5000226843F404439360E368022B31D0226893
:100F6000536843F0007343F4004353602268D3682E
:100F700023F40043D360236962691343A1692268A3
:100F800043EA0123D360E369216A22680B431360BB
:100F90002268136843F0010313600020606420237B
:100FA00084F84130206384F8420010BD80F840305E
:100FB000FFF7C4FBB6E7A368226843F400439360DD
:100FC000CAE723684FF400625A60C8E701207047FF
:100FD00090F84130DBB2202B24D190F84030012B27
:100FE00022D0012380F84030242380F84130026869
:100FF000136823F0010313600268136823F480531D
:10100000136002681368194311600268136843F0A3
:1010100001031360202380F84130002380F8403022
:1010200018467047022070470220704790F8413000
:10103000DBB2202B22D190F84030012B20D00123AD
:1010400080F84030242380F841300268136823F090
:10105000010313600268136823F4706343EA0121FB
:1010600011600268136843F001031360202380F8C5
:101070004130002380F84030184670470220704706
:101080000220704730B583B00546204B9B6D13F0AE
:10109000805F0BD000F048FFB0F5007F17D0802DA7
:1010A0001FD82DD0702D2DD000211BE0174CA36D23
:1010B00043F08053A365A36D03F080530193019B1C
:1010C00000F032FFA36D23F08053A365E4E7802D89
:1010D00003D9A02D03D9022104E0002102E001215F
:1010E00000E003210A4A136823F007030B4313604F
:1010F000136803F007038B4206D0012003B030BD14
:101100000221EFE70121EDE70020F7E700100240A0
:1011100000200240314A9368D26802F0030213F0C3
:101120000C030AD00C2B06D0042B1FD0082B20D088
:101130000020014610E0012AF6D1284A126812F078
:10114000080F0CD1254AD2F89420C2F30322244977
:1011500051F8221043B100200C2B0DD070471F4ACC
:101160001268C2F30312F2E70846F5E71D480021B2
:10117000F2E71D480021EFE7184BDA6802F003029E
:10118000DB68C3F302130133022A0AD0032A1AD000
:10119000B1FBF3F3114AD068C0F3062000FB03F063
:1011A00008E01048B0FBF3F30C4AD068C0F3062007
:1011B00000FB03F0094BDB68C3F3416301335B00C1
:1011C000B0FBF3F0CAE70848B0FBF3F3034AD0687A
:1011D000C0F3062000FB03F0ECE700BF0010024064
:1011E000A82100080024F40000127A00002800F072
:1011F000C182F0B583B00446AC4B9D6805F00C0588
:10120000DE6806F00306036813F0100F5DD0E5B149
:101210000C2D18D0A369002B00F0B780A34A1368E7
:1012200043F001031360FFF76FFE07469F4B1B68F7
:1012300013F0020F40F09680FFF766FEC01B0228F5
:10124000F4D90323A2E2012EE4D1984B1B6813F0DA
:10125000020F03D0A369002B00F08F82206A934B0A
:101260001B6813F0080F5DD0904B1B6803F0F00370
:1012700098425ED9FFF706FF002840F080828B4B32
:101280001A6842F008021A601A6822F0F002216A15
:101290000A431A605A6822F47F42E16942EA012255
:1012A0005A60FFF737FF814B9B68C3F30313804AF3
:1012B000D35C03F01F03D8407E4B18600020FFF77B
:1012C000F1FD0346002840F06182236813F0010F0E
:1012D0007AD0082D6FD00C2D6BD06368B3F5803FAA
:1012E00000F09180B3F5A02F00F093806F4B1A6847
:1012F00022F480321A601A6822F480221A6063682D
:10130000002B00F09380FFF7FFFD0746674B1B683B
:1013100013F4003F58D1FFF7F7FDC01B6428F5D93F
:10132000032333E2614BD3F894301B0903F0F0033D
:101330009EE75E4B1A6842F008021A601A6822F0B3
:10134000F002216A0A431A605A6822F47F42E16976
:1013500042EA01225A60206AFFF794FE0028A0D0DA
:10136000012313E2514B1A6842F008021A601A680E
:1013700022F0F002216A0A431A605A6822F47F427E
:10138000E16942EA01225A609FE7484A136823F064
:1013900001031360FFF7B8FD0746444B1B6813F0C9
:1013A000020F92D0FFF7B0FDC01B0228F5D903232E
:1013B000ECE1032E91D13D4B1B6813F4003F03D0A9
:1013C0006368002B00F0DD81236813F0020F4FD01B
:1013D000042D3CD00C2D38D0E368002B75D0334A57
:1013E000136843F480731360FFF78EFD06462F4B9E
:1013F0001B6813F4806F5FD1FFF786FD801B022806
:10140000F5D90323C2E1294A136843F480331360FA
:1014100075E703F18043A3F53C331A6842F4802258
:101420001A601A6842F480321A6068E7FFF76CFDB0
:1014300007461E4B1B6813F4003FC5D0FFF764FD41
:10144000C01B6428F5D90323A0E1022EC4D1174B99
:101450001B6813F4806F03D0E368002B00F09381C6
:10146000124A536823F0F853216943EA0163536039
:10147000236813F0080F53D06369002B39D00B4A4F
:10148000D2F8943043F00103C2F89430FFF73CFDEA
:101490000646064BD3F8943013F0020F40D1FFF705
:1014A00033FD801B0228F4D903236FE100100240B2
:1014B0009021000800000020B74A536823F0F85339
:1014C000216943EA01635360D2E7B34A136823F406
:1014D00080731360FFF718FD0646AF4B1B6813F4CB
:1014E000806FC5D0FFF710FD801B0228F5D90323BC
:1014F0004CE1A94AD2F8943023F00103C2F89430A9
:10150000FFF702FD0646A44BD3F8943013F0020F08
:1015100006D0FFF7F9FC801B0228F4D9032335E13C
:10152000236813F0040F7AD09B4B9B6D13F0805F00
:101530000BD1994B9A6D42F080529A659B6D03F0E6
:1015400080530193019B012600E00026934B1B680A
:1015500013F4807F26D0A368012B37D0052B3DD014
:101560008D4BD3F8902022F00102C3F89020D3F8DD
:10157000902022F00402C3F89020A368002B3BD0F7
:10158000FFF7C2FC0746844BD3F8903013F0020FEC
:1015900044D1FFF7B9FCC01B41F288339842F2D91D
:1015A0000323F3E07D4A136843F480731360FFF76D
:1015B000ABFC0746794B1B6813F4807FCBD1FFF758
:1015C000A3FCC01B0228F5D90323DFE0724AD2F83E
:1015D000903043F00103C2F89030CEE76E4BD3F861
:1015E000902042F00402C3F89020D3F8902042F0FB
:1015F0000102C3F89020C0E7FFF786FC0746664B60
:10160000D3F8903013F0020F08D0FFF77DFCC01B19
:1016100041F288339842F2D90323B7E0E6B9236850
:1016200013F0200F35D0636AE3B15B4AD2F89830EB
:1016300043F00103C2F89830FFF766FC0646564BAC
:10164000D3F8983013F0020F23D1FFF75DFC801B15
:101650000228F4D9032399E04F4A936D23F0805375
:101660009365DCE74C4AD2F8983023F00103C2F8C6
:101670009830FFF749FC0646474BD3F8983013F0F3
:10168000020F06D0FFF740FC801B0228F4D9032389
:101690007CE0A36A002B78D00C2D7AD0022B23D0CB
:1016A0003D4B1A6822F080721A601B6813F0006FBD
:1016B00004D1394AD36823F00303D360364AD36890
:1016C00023F0887323F48033D360FFF71DFC0446B6
:1016D000314B1B6813F0007F4AD0FFF715FC001B4D
:1016E0000228F5D9032351E02B4A136823F08073B5
:1016F0001360FFF709FC0546274B1B6813F0007FBA
:1017000006D0FFF701FC401B0228F5D903233DE07A
:10171000236B5A1E636B1B0243EA0213E26A1343F4
:10172000E26B5208013A43EA4253226C5208013AF2
:1017300043EA4263A26B43EAC263174AD360136869
:1017400043F080731360D36843F08073D360FFF776
:10175000DBFB0446104B1B6813F0007F06D1FFF73C
:10176000D3FB001B0228F5D903230FE000230DE073
:1017700000230BE0012318467047012306E00123F4
:1017800004E0012302E0012300E00023184603B037
:10179000F0BD0123FAE700BF0010024000700040D6
:1017A000002800F09A8070B504464E4B1B6803F089
:1017B00007038B420CD24B4A136823F007030B43F9
:1017C0001360136803F007038B4201D0012070BD42
:1017D0000D46236813F0010F39D06368032B09D03D
:1017E000022B26D063BB404A126812F0020F06D1CA
:1017F0000120ECE73C4A126812F0007F6FD03A49B2
:101800008A6822F0030213438B60FFF77DFB0646D4
:10181000354B9B6803F00C036268B3EB820F16D064
:10182000FFF772FB801B41F288339842F0D9032006
:10183000CDE72D4A126812F4003FE0D10120C6E73F
:10184000294A126812F4806FD9D10120BFE72368BA
:1018500013F0020F06D0244A936823F0F003A16826
:101860000B4393601F4B1B6803F00703AB420CD97B
:101870001C4A136823F007032B431360136803F01B
:101880000703AB4201D00120A1E7236813F0040F46
:1018900006D0154A936823F4E063E1680B43936034
:1018A000236813F0080F07D00F4A936823F460539E
:1018B000216943EAC1039360FFF72CFC0A4B9B6844
:1018C000C3F30313094AD35C03F01F03D840084B4A
:1018D00018600020FFF7E6FA79E701207047012041
:1018E00075E700BF00200240001002409021000870
:1018F00000000020014B1868704700BF0000002066
:1019000008B5FFF7F7FF054B9B68C3F30223044AB2
:10191000D35C03F01F03D84008BD00BF0010024095
:10192000A021000808B5FFF7E5FF054B9B68C3F34E
:10193000C223044AD35C03F01F03D84008BD00BF94
:1019400000100240A0210008F8B5594BDB6813F0E5
:10195000030F18D0564BDB6803F003030268934271
:1019600002D001252846F8BD002A00F09F80504B88
:10197000DB68C3F3021301334268934201D00125AF
:10198000F0E700251AE00368022B58D0032B5DD046
:10199000012B01D001250FE0454A126812F0020F19
:1019A00060D0434DEA6822F073024468013C43EA88
:1019B00004131343EB600025002DD3D10F460446DA
:1019C0003B4A136823F080631360FFF79DFA0646D5
:1019D000374B1B6813F0006F05D0FFF795FA801B9B
:1019E0000228F5D90325002DBCD1002F3CD1304968
:1019F0000B6923F0784323F4FE43A068E268D20623
:101A000042EA002213430B61294A136843F08063C2
:101A10001360FFF779FA0646254B1B6813F0006F39
:101A200005D1FFF771FA801B0228F5D90325002D97
:101A300098D11F4A1369A1690B43136192E71C4AAD
:101A4000126812F4806FACD10125B5E7184A12680C
:101A500012F4003FA5D1164A126812F4802FA0D1CB
:101A60000125A9E70125A7E7012F0FD0104802693A
:101A700022F0C06222F4FE42A16863695B08013B68
:101A80005B0643EA012313430361BDE7084802698B
:101A900022F4C00222F4FE42A16823695B08013BE4
:101AA0005B0543EA012313430361ADE7012559E7D1
:101AB000001002402DE9F04182B00446036813F49F
:101AC000006F26D0C36BB3F5000F06D0B3F5400FFF
:101AD0001DD09BB1012637461DE0AE4AD36843F4C2
:101AE0008033D3600027AB4AD2F8883023F4400318
:101AF000E16B0B43C2F8883000260CE00021043073
:101B0000FFF722FF07460028EDD0064603E0002736
:101B1000E9E700263746236813F4003F6BD09D4B5E
:101B20009B6D13F0805F4CD19A4B9A6D42F08052BE
:101B30009A659B6D03F080530193019B4FF0010860
:101B4000954A136843F480731360FFF7DDF9054687
:101B5000914B1B6813F4807F05D1FFF7D5F9401B2B
:101B60000228F5D90327002F40D18A4BD3F89030B3
:101B700013F4407315D0226D9A4212D0854AD2F8E0
:101B8000903023F44073D2F8901041F48031C2F8C1
:101B90009010D2F8901021F48031C2F89010C2F861
:101BA000903013F0010F0FD1002F40F0C980794A17
:101BB000D2F8903023F44073216D0B43C2F890307B
:101BC00015E04FF00008BBE7FFF79EF90546714BA3
:101BD000D3F8903013F0020FE6D1FFF795F9401BD0
:101BE00041F288339842F2D90327DDE73E46B8F147
:101BF000000F40F0A780236813F0010F08D0654A5A
:101C0000D2F8883023F00303216A0B43C2F88830EE
:101C1000236813F0020F08D05E4AD2F8883023F010
:101C20000C03616A0B43C2F88830236813F0200F5D
:101C300008D0584AD2F8883023F44063A16A0B4395
:101C4000C2F88830236813F4007F08D0514AD2F8D4
:101C5000883023F44023616B0B43C2F8883023683B
:101C600013F4806F08D04B4AD2F8883023F4401325
:101C7000A16B0B43C2F88830236813F0400F08D0E3
:101C8000444AD2F8883023F44053E16A0B43C2F847
:101C90008830236813F4807F08D03E4AD2F8883019
:101CA00023F44033216B0B43C2F88830236813F4CC
:101CB000005F0FD0374AD2F8883023F04063216CA0
:101CC0000B43C2F88830236CB3F1006F40D0B3F1FE
:101CD000806F42D0236813F4802F0FD02D4AD2F8A2
:101CE000883023F04063616C0B43C2F88830636C2A
:101CF000B3F1006F39D0B3F1806F3BD0236813F498
:101D0000804F0CD0234AD2F8883023F04053A16C86
:101D10000B43C2F88830A36CB3F1805F32D02368E4
:101D200013F4004F08D01B4AD2F8883023F08043C8
:101D3000E16C0B43C2F88830304602B0BDE8F08158
:101D40003E4654E7134A936D23F08053936552E760
:101D5000D36843F48013D360BCE70121201DFFF753
:101D6000F3FD0028B6D00646B4E7D36843F48013E9
:101D7000D360C3E70121201DFFF7E6FD0028BDD099
:101D80000646BBE70221201DFFF7DEFD0028C6D076
:101D90000646C4E70010024000700040F0B482B074
:101DA00000236FE0866805EA060CCE68BE4046EA6E
:101DB0000C068660466826EA04044E68C6F30016E0
:101DC0009E4026434660C46825408C68BC402C4336
:101DD000C4604C6814F0805F53D04C4C256E45F0C5
:101DE00001052566246E04F001040194019C9D0800
:101DF000AE1C474C54F8267003F00304A6000F24D1
:101E0000B44027EA0407B0F1904F77D0414CA0428C
:101E100076D004F58064A0426ED00724B4403C43E1
:101E200002353B4E46F825403B4C2568D44304EA36
:101E300005064F6817F4803F01D042EA0506364D8B
:101E40002E606D6804EA05064F6817F4003F01D064
:101E500042EA0506304D6E60AD6804EA05064F683B
:101E600017F4801F01D042EA05062B4DAE60ED68E5
:101E70002C404E6816F4001F01D042EA0504264AA1
:101E8000D46001330A6832FA03F43BD001249C4049
:101E90002240F6D04D68022D01D0122D10D1DE085F
:101EA000083650F826C003F00705AF000F25BD40E7
:101EB0002CEA050C0D69BD4045EA0C0540F826509A
:101EC00006685F000325BD40ED4305EA060C4E6839
:101ED00006F00306BE4046EA0C0606604E6806F1B0
:101EE000FF3CBCF1010F7FF65DAF112E3FF45AAFFE
:101EF000122E7FF468AF55E702248FE700248DE7A8
:101F000001248BE702B0F0BC704700BF0010024014
:101F10000000014000040048000401400AB9816249
:101F20007047816170470000024B186800F4C06080
:101F3000704700BF00700040B0F5007F0FD01F4B0E
:101F40001B6803F4C063B3F5806F34D01B4A136879
:101F500023F4C06343F48063136000207047174B81
:101F60001B6803F4C063B3F5007F22D0134A1368E3
:101F700023F4C06343F400731360114B1A683223D7
:101F800003FB02F30F4AA2FB03239B0C013300E087
:101F9000013B0A4A526912F4806F01D0002BF7D13D
:101FA000064B5B6913F4806F01D10020704703205A
:101FB0007047002070470020704700BF007000404D
:101FC0000000002083DE1B43074AD36823F4E0634C
:101FD0001B041B0C000200F4E060184340F0BF60DB
:101FE00040F40030D060704700ED00E030B4174B93
:101FF000DB68C3F30223C3F10704042C28BF0424C5
:102000001D1D062D18D9033B4FF0FF3505FA04F4CA
:1020100021EA0401994005FA03F322EA0303194374
:1020200000280BDB0901C9B200F1604000F56140F6
:1020300080F8001330BC70470023E5E700F00F0084
:102040000901C9B2024B1954F4E700BF00ED00E0EA
:1020500014ED00E00138B0F1807F0AD2064B5860E1
:10206000064AF02182F823100020986007221A60A7
:1020700070470120704700BF10E000E000ED00E075
:102080000F49D1F8883043F47003C1F888300D4B04
:102090001A6842F001021A60002098601A6822F063
:1020A000A85222F410221A604FF48052DA601A68A3
:1020B00022F480221A6098614FF000638B607047B1
:1020C00000ED00E000100240DFF834D0002103E012
:1020D0000C4B5B58435004310B480C4B42189A424E
:1020E000F6D30B4A02E0002342F8043B094B9A4224
:1020F000F9D3FFF7C5FF00F011F8FEF7B7FAFEE7D6
:1021000000000120F021000800000020080000204D
:10211000080000203C010020FEE7000070B50D4ED5
:102120000D4CA41BA4100025A54209D10B4E0C4C4C
:1021300000F020F8A41BA4100025A54205D170BD15
:1021400056F8253098470135EEE756F82530984780
:102150000135F2E7E0210008E0210008E021000855
:10216000E421000802440346934200D1704703F87B
:10217000011BF9E7F8B500BFF8BC08BC9E467047E4
:10218000F8B500BFF8BC08BC9E46704700000000D0
:102190000000000000000000010203040607080917
:1021A0000000000001020304A0860100400D0300AE
:1021B000801A060000350C0040420F0080841E008B
:1021C00000093D0000127A000024F40000366E0180
:0821D0000048E801006CDC028C
:0821D80028E0FF7F0100000078
:0821E000B50100080000000039
:0821E800910100080000000055
:0821F00000093D0000000000A1
:04000005080020C906
:00000001FF
